{
  "_format": "hh-sol-artifact-1",
  "contractName": "Budget",
  "sourceName": "contracts/Budget.sol",
  "abi": [
    {
      "inputs": [],
      "stateMutability": "nonpayable",
      "type": "constructor"
    },
    {
      "inputs": [],
      "name": "get",
      "outputs": [
        {
          "components": [
            {
              "internalType": "string",
              "name": "name",
              "type": "string"
            },
            {
              "internalType": "uint256",
              "name": "amount",
              "type": "uint256"
            },
            {
              "internalType": "string",
              "name": "message",
              "type": "string"
            },
            {
              "internalType": "address",
              "name": "from",
              "type": "address"
            },
            {
              "internalType": "uint256",
              "name": "timestamp",
              "type": "uint256"
            }
          ],
          "internalType": "struct Budget.Department[]",
          "name": "",
          "type": "tuple[]"
        }
      ],
      "stateMutability": "view",
      "type": "function"
    },
    {
      "inputs": [
        {
          "internalType": "string",
          "name": "name",
          "type": "string"
        },
        {
          "internalType": "uint256",
          "name": "amount",
          "type": "uint256"
        },
        {
          "internalType": "string",
          "name": "message",
          "type": "string"
        }
      ],
      "name": "send",
      "outputs": [],
      "stateMutability": "payable",
      "type": "function"
    }
  ],
  "bytecode": "0x608060405234801561001057600080fd5b5033600160006101000a81548173ffffffffffffffffffffffffffffffffffffffff021916908373ffffffffffffffffffffffffffffffffffffffff160217905550610be0806100616000396000f3fe6080604052600436106100295760003560e01c80632b4867f11461002e5780636d4ce63c1461004a575b600080fd5b61004860048036038101906100439190610594565b610075565b005b34801561005657600080fd5b5061005f610217565b60405161006c919061082d565b60405180910390f35b600034116100b8576040517f08c379a00000000000000000000000000000000000000000000000000000000081526004016100af906108ac565b60405180910390fd5b600160009054906101000a900473ffffffffffffffffffffffffffffffffffffffff1673ffffffffffffffffffffffffffffffffffffffff166108fc349081150290604051600060405180830381858888f19350505050158015610120573d6000803e3d6000fd5b5060006040518060a001604052808581526020018481526020018381526020013373ffffffffffffffffffffffffffffffffffffffff168152602001428152509080600181540180825580915050600190039060005260206000209060050201600090919091909150600082015181600001908161019e9190610ad8565b506020820151816001015560408201518160020190816101be9190610ad8565b5060608201518160030160006101000a81548173ffffffffffffffffffffffffffffffffffffffff021916908373ffffffffffffffffffffffffffffffffffffffff160217905550608082015181600401555050505050565b60606000805480602002602001604051908101604052809291908181526020016000905b828210156103fb57838290600052602060002090600502016040518060a001604052908160008201805461026e906108fb565b80601f016020809104026020016040519081016040528092919081815260200182805461029a906108fb565b80156102e75780601f106102bc576101008083540402835291602001916102e7565b820191906000526020600020905b8154815290600101906020018083116102ca57829003601f168201915b505050505081526020016001820154815260200160028201805461030a906108fb565b80601f0160208091040260200160405190810160405280929190818152602001828054610336906108fb565b80156103835780601f1061035857610100808354040283529160200191610383565b820191906000526020600020905b81548152906001019060200180831161036657829003601f168201915b505050505081526020016003820160009054906101000a900473ffffffffffffffffffffffffffffffffffffffff1673ffffffffffffffffffffffffffffffffffffffff1673ffffffffffffffffffffffffffffffffffffffff1681526020016004820154815250508152602001906001019061023b565b50505050905090565b6000604051905090565b600080fd5b600080fd5b600080fd5b600080fd5b6000601f19601f8301169050919050565b7f4e487b7100000000000000000000000000000000000000000000000000000000600052604160045260246000fd5b61046b82610422565b810181811067ffffffffffffffff8211171561048a57610489610433565b5b80604052505050565b600061049d610404565b90506104a98282610462565b919050565b600067ffffffffffffffff8211156104c9576104c8610433565b5b6104d282610422565b9050602081019050919050565b82818337600083830152505050565b60006105016104fc846104ae565b610493565b90508281526020810184848401111561051d5761051c61041d565b5b6105288482856104df565b509392505050565b600082601f83011261054557610544610418565b5b81356105558482602086016104ee565b91505092915050565b6000819050919050565b6105718161055e565b811461057c57600080fd5b50565b60008135905061058e81610568565b92915050565b6000806000606084860312156105ad576105ac61040e565b5b600084013567ffffffffffffffff8111156105cb576105ca610413565b5b6105d786828701610530565b93505060206105e88682870161057f565b925050604084013567ffffffffffffffff81111561060957610608610413565b5b61061586828701610530565b9150509250925092565b600081519050919050565b600082825260208201905092915050565b6000819050602082019050919050565b600081519050919050565b600082825260208201905092915050565b60005b8381101561068557808201518184015260208101905061066a565b60008484015250505050565b600061069c8261064b565b6106a68185610656565b93506106b6818560208601610667565b6106bf81610422565b840191505092915050565b6106d38161055e565b82525050565b600073ffffffffffffffffffffffffffffffffffffffff82169050919050565b6000610704826106d9565b9050919050565b610714816106f9565b82525050565b600060a08301600083015184820360008601526107378282610691565b915050602083015161074c60208601826106ca565b50604083015184820360408601526107648282610691565b9150506060830151610779606086018261070b565b50608083015161078c60808601826106ca565b508091505092915050565b60006107a3838361071a565b905092915050565b6000602082019050919050565b60006107c38261061f565b6107cd818561062a565b9350836020820285016107df8561063b565b8060005b8581101561081b57848403895281516107fc8582610797565b9450610807836107ab565b925060208a019950506001810190506107e3565b50829750879550505050505092915050565b6000602082019050818103600083015261084781846107b8565b905092915050565b600082825260208201905092915050565b7f73656e64206d6f6e657900000000000000000000000000000000000000000000600082015250565b6000610896600a8361084f565b91506108a182610860565b602082019050919050565b600060208201905081810360008301526108c581610889565b9050919050565b7f4e487b7100000000000000000000000000000000000000000000000000000000600052602260045260246000fd5b6000600282049050600182168061091357607f821691505b602082108103610926576109256108cc565b5b50919050565b60008190508160005260206000209050919050565b60006020601f8301049050919050565b600082821b905092915050565b60006008830261098e7fffffffffffffffffffffffffffffffffffffffffffffffffffffffffffffffff82610951565b6109988683610951565b95508019841693508086168417925050509392505050565b6000819050919050565b60006109d56109d06109cb8461055e565b6109b0565b61055e565b9050919050565b6000819050919050565b6109ef836109ba565b610a036109fb826109dc565b84845461095e565b825550505050565b600090565b610a18610a0b565b610a238184846109e6565b505050565b5b81811015610a4757610a3c600082610a10565b600181019050610a29565b5050565b601f821115610a8c57610a5d8161092c565b610a6684610941565b81016020851015610a75578190505b610a89610a8185610941565b830182610a28565b50505b505050565b600082821c905092915050565b6000610aaf60001984600802610a91565b1980831691505092915050565b6000610ac88383610a9e565b9150826002028217905092915050565b610ae18261064b565b67ffffffffffffffff811115610afa57610af9610433565b5b610b0482546108fb565b610b0f828285610a4b565b600060209050601f831160018114610b425760008415610b30578287015190505b610b3a8582610abc565b865550610ba2565b601f198416610b508661092c565b60005b82811015610b7857848901518255600182019150602085019450602081019050610b53565b86831015610b955784890151610b91601f891682610a9e565b8355505b6001600288020188555050505b50505050505056fea264697066735822122039fdfa9fb8beba30aeff2ed7e938aaf9ef6e61a8802b7151ca31689c4a6bedfd64736f6c63430008180033",
  "linkReferences": {},
  "deployedLinkReferences": {}
}